{
  "_format": "hh-sol-artifact-1",
  "contractName": "Bank",
  "sourceName": "contracts/Bank.sol",
  "abi": [
    {
      "inputs": [],
      "stateMutability": "nonpayable",
      "type": "constructor"
    },
    {
      "inputs": [],
      "name": "bankName",
      "outputs": [
        {
          "internalType": "string",
          "name": "",
          "type": "string"
        }
      ],
      "stateMutability": "view",
      "type": "function"
    },
    {
      "inputs": [],
      "name": "bankOwner",
      "outputs": [
        {
          "internalType": "address",
          "name": "",
          "type": "address"
        }
      ],
      "stateMutability": "view",
      "type": "function"
    },
    {
      "inputs": [
        {
          "internalType": "address",
          "name": "",
          "type": "address"
        }
      ],
      "name": "customerBalance",
      "outputs": [
        {
          "internalType": "uint256",
          "name": "",
          "type": "uint256"
        }
      ],
      "stateMutability": "view",
      "type": "function"
    },
    {
      "inputs": [],
      "name": "depositMoney",
      "outputs": [],
      "stateMutability": "payable",
      "type": "function"
    },
    {
      "inputs": [],
      "name": "getBankBalance",
      "outputs": [
        {
          "internalType": "uint256",
          "name": "",
          "type": "uint256"
        }
      ],
      "stateMutability": "view",
      "type": "function"
    },
    {
      "inputs": [],
      "name": "getCustomerBalance",
      "outputs": [
        {
          "internalType": "uint256",
          "name": "",
          "type": "uint256"
        }
      ],
      "stateMutability": "view",
      "type": "function"
    },
    {
      "inputs": [
        {
          "internalType": "string",
          "name": "_name",
          "type": "string"
        }
      ],
      "name": "setBankName",
      "outputs": [],
      "stateMutability": "nonpayable",
      "type": "function"
    },
    {
      "inputs": [
        {
          "internalType": "uint256",
          "name": "_total",
          "type": "uint256"
        }
      ],
      "name": "withDrawMoney",
      "outputs": [],
      "stateMutability": "payable",
      "type": "function"
    }
  ],
  "bytecode": "0x608060405234801561001057600080fd5b50336000806101000a81548173ffffffffffffffffffffffffffffffffffffffff021916908373ffffffffffffffffffffffffffffffffffffffff160217905550610c93806100606000396000f3fe60806040526004361061007b5760003560e01c80637b83b50b1161004e5780637b83b50b1461011b578063827cc45214610146578063a853409a14610162578063e147aaa71461018d5761007b565b806316c05aa21461008057806327d358011461008a57806337ebe47b146100b557806370142690146100f2575b600080fd5b6100886101b8565b005b34801561009657600080fd5b5061009f610254565b6040516100ac91906107ef565b60405180910390f35b3480156100c157600080fd5b506100dc60048036038101906100d7919061065e565b6102e2565b6040516100e99190610891565b60405180910390f35b3480156100fe57600080fd5b5061011960048036038101906101149190610687565b6102fa565b005b34801561012757600080fd5b506101306103a2565b60405161013d9190610891565b60405180910390f35b610160600480360381019061015b91906106c8565b610439565b005b34801561016e57600080fd5b506101776104be565b6040516101849190610891565b60405180910390f35b34801561019957600080fd5b506101a2610505565b6040516101af91906107d4565b60405180910390f35b60003414156101fc576040517f08c379a00000000000000000000000000000000000000000000000000000000081526004016101f390610811565b60405180910390fd5b34600260003373ffffffffffffffffffffffffffffffffffffffff1673ffffffffffffffffffffffffffffffffffffffff168152602001908152602001600020600082825461024b919061091e565b92505081905550565b60018054610261906109f2565b80601f016020809104026020016040519081016040528092919081815260200182805461028d906109f2565b80156102da5780601f106102af576101008083540402835291602001916102da565b820191906000526020600020905b8154815290600101906020018083116102bd57829003601f168201915b505050505081565b60026020528060005260406000206000915090505481565b60008054906101000a900473ffffffffffffffffffffffffffffffffffffffff1673ffffffffffffffffffffffffffffffffffffffff163373ffffffffffffffffffffffffffffffffffffffff1614610388576040517f08c379a000000000000000000000000000000000000000000000000000000000815260040161037f90610831565b60405180910390fd5b806001908051906020019061039e929190610529565b5050565b60008060009054906101000a900473ffffffffffffffffffffffffffffffffffffffff1673ffffffffffffffffffffffffffffffffffffffff163373ffffffffffffffffffffffffffffffffffffffff1614610433576040517f08c379a000000000000000000000000000000000000000000000000000000000815260040161042a90610851565b60405180910390fd5b47905090565b600260003373ffffffffffffffffffffffffffffffffffffffff1673ffffffffffffffffffffffffffffffffffffffff168152602001908152602001600020548111156104bb576040517f08c379a00000000000000000000000000000000000000000000000000000000081526004016104b290610871565b60405180910390fd5b50565b6000600260003373ffffffffffffffffffffffffffffffffffffffff1673ffffffffffffffffffffffffffffffffffffffff16815260200190815260200160002054905090565b60008054906101000a900473ffffffffffffffffffffffffffffffffffffffff1681565b828054610535906109f2565b90600052602060002090601f016020900481019282610557576000855561059e565b82601f1061057057805160ff191683800117855561059e565b8280016001018555821561059e579182015b8281111561059d578251825591602001919060010190610582565b5b5090506105ab91906105af565b5090565b5b808211156105c85760008160009055506001016105b0565b5090565b60006105df6105da846108d1565b6108ac565b9050828152602081018484840111156105f757600080fd5b6106028482856109b0565b509392505050565b60008135905061061981610c2f565b92915050565b600082601f83011261063057600080fd5b81356106408482602086016105cc565b91505092915050565b60008135905061065881610c46565b92915050565b60006020828403121561067057600080fd5b600061067e8482850161060a565b91505092915050565b60006020828403121561069957600080fd5b600082013567ffffffffffffffff8111156106b357600080fd5b6106bf8482850161061f565b91505092915050565b6000602082840312156106da57600080fd5b60006106e884828501610649565b91505092915050565b6106fa81610974565b82525050565b600061070b82610902565b610715818561090d565b93506107258185602086016109bf565b61072e81610ae2565b840191505092915050565b600061074660298361090d565b915061075182610af3565b604082019050919050565b600061076960328361090d565b915061077482610b42565b604082019050919050565b600061078c60358361090d565b915061079782610b91565b604082019050919050565b60006107af60288361090d565b91506107ba82610be0565b604082019050919050565b6107ce816109a6565b82525050565b60006020820190506107e960008301846106f1565b92915050565b600060208201905081810360008301526108098184610700565b905092915050565b6000602082019050818103600083015261082a81610739565b9050919050565b6000602082019050818103600083015261084a8161075c565b9050919050565b6000602082019050818103600083015261086a8161077f565b9050919050565b6000602082019050818103600083015261088a816107a2565b9050919050565b60006020820190506108a660008301846107c5565b92915050565b60006108b66108c7565b90506108c28282610a24565b919050565b6000604051905090565b600067ffffffffffffffff8211156108ec576108eb610ab3565b5b6108f582610ae2565b9050602081019050919050565b600081519050919050565b600082825260208201905092915050565b6000610929826109a6565b9150610934836109a6565b9250827fffffffffffffffffffffffffffffffffffffffffffffffffffffffffffffffff0382111561096957610968610a55565b5b828201905092915050565b600061097f82610986565b9050919050565b600073ffffffffffffffffffffffffffffffffffffffff82169050919050565b6000819050919050565b82818337600083830152505050565b60005b838110156109dd5780820151818401526020810190506109c2565b838111156109ec576000848401525b50505050565b60006002820490506001821680610a0a57607f821691505b60208210811415610a1e57610a1d610a84565b5b50919050565b610a2d82610ae2565b810181811067ffffffffffffffff82111715610a4c57610a4b610ab3565b5b80604052505050565b7f4e487b7100000000000000000000000000000000000000000000000000000000600052601160045260246000fd5b7f4e487b7100000000000000000000000000000000000000000000000000000000600052602260045260246000fd5b7f4e487b7100000000000000000000000000000000000000000000000000000000600052604160045260246000fd5b6000601f19601f8301169050919050565b7f596f75206e65656420746f206465706f73697420736f6d6520616d6f756e742060008201527f6f66206d6f6e6579210000000000000000000000000000000000000000000000602082015250565b7f596f75206d75737420626520746865206f776e657220746f207365742074686560008201527f206e616d65206f66207468652062616e6b210000000000000000000000000000602082015250565b7f596f75206d75737420626520746865206f776e6572206f66207468652062616e60008201527f6b20746f2073656520616c6c2062616c616e6365730000000000000000000000602082015250565b7f596f75206861766520696e73756666696369656e742066756e647320746f207760008201527f6974686472617721000000000000000000000000000000000000000000000000602082015250565b610c3881610974565b8114610c4357600080fd5b50565b610c4f816109a6565b8114610c5a57600080fd5b5056fea26469706673582212206db7c96233b5e053e9cb1b8dbb5614e3e84f5527fa662a23803635e7e360682b64736f6c63430008040033",
  "linkReferences": {},
  "deployedLinkReferences": {}
}